:10000000E01A040000000000041A0000081A0000B2
:100010000C1A0000101A0000141A0000181A000030
:100020001C1A0000001A0000201A0000241A000008
:10003000281A00002C1A0000301A0000341A0000A0
:10004000381A00003C1A0000401A0000441A000050
:10005000481A00004C1A0000501A0000541A000000
:10006000581A0000001A00005C1A0000601A000014
:10007000641A0000681A00006C1A0000001A0000E0
:10008000001A0000001A0000701A0000741A000024
:10009000781A00007C1A0000801A0000841A000000
:1000A000881A00008C1A0000901A0000941A0000B0
:1000B000001A0000001A0000981A00009C1A0000A4
:1000C000A01A0000001A0000001A0000001A000028
:1000D000001A0000001A0000001A0000001A0000B8
:1000E000001A0000001A0000001A0000A41A000004
:1000F000A81A0000001A0000001A0000001A0000F0
:10010000001A0000001A0000001A0000001A000087
:10011000AC1A0000001A0000001A0000001A0000CB
:10012000001A0000001A0000001A0000B01A0000B7
:10013000B41A0000B81A0000001A0000001A0000EB
:10014000001A0000001A0000001A0000001A000047
:10015000001A0000001A0000001A0000BC1A00007B
:10016000001A0000001A0000001A0000001A000027
:10017000001A0000001A0000001A0000001A000017
:10018000001A0000001A0000001A0000001A000007
:10019000001A0000001A0000001A0000001A0000F7
:1001A000001A0000001A0000001A0000001A0000E7
:1001B000001A0000001A0000001A0000001A0000D7
:1001C000001A0000001A0000001A0000001A0000C7
:1001D000001A0000001A0000001A0000001A0000B7
:1001E000001A0000001A0000001A0000001A0000A7
:1001F000001A0000001A0000001A0000001A000097
:10020000001A0000001A0000001A0000001A000086
:10021000001A0000001A0000001A0000001A000076
:10022000001A0000001A0000001A0000001A000066
:10023000001A0000001A0000001A0000001A000056
:10024000001A0000001A0000001A0000001A000046
:10025000001A0000001A0000001A0000001A000036
:10026000C01A0000C41A0000001A0000C81A0000DA
:10027000CC1A0000D01A0000D41A0000D81A0000CE
:10028000DC1A0000001A0000001A0000001A00002A
:10029000001A0000001A0000001A0000001A0000F6
:1002A000001A0000001A0000001A0000001A0000E6
:1002B000001A0000001A0000001A0000001A0000D6
:1002C000001A0000001A0000001A0000001A0000C6
:1002D000001A0000001A0000001A0000001A0000B6
:1002E000001A0000001A0000001A0000001A0000A6
:1002F000001A0000001A0000001A0000001A000096
:10030000001A0000001A0000001A0000001A000085
:10031000001A0000001A0000001A0000001A000075
:10032000001A0000001A0000001A0000001A000065
:10033000001A0000001A0000001A0000001A000055
:10034000001A0000001A0000001A0000001A000045
:10035000001A0000001A0000001A0000001A000035
:10036000001A0000001A0000001A0000001A000025
:10037000001A0000001A0000001A0000001A000015
:10038000001A0000001A0000001A0000001A000005
:10039000001A0000001A0000001A0000001A0000F5
:1003A000001A0000001A0000001A0000001A0000E5
:1003B000001A0000001A0000001A0000001A0000D5
:1003C000001A0000001A0000001A0000001A0000C5
:1003D000001A0000001A0000001A0000001A0000B5
:1003E000001A0000001A0000001A0000001A0000A5
:1003F000001A0000001A0000001A0000001A000095
:10300000E01A0400000000000200FA00000F78003F
:103010001E00780000407800674060000080FB00E0
:10302000670060004A00DD00020A8000F13F2E00C8
:103030008100610001007000000A88000080FA0031
:10304000000006000200FA00000F78001E00780061
:1030500000407800674060000080FB00670060006F
:10306000020A800081FF2F008100610001007000D2
:10307000000A88000080FA00000006000000FA0044
:103080004301A8000080FA00000006000000FA00DA
:103090000028A9000080FA00000006000200FA00E3
:1030A000000F78001E007800004078006740600044
:1030B0000080FB00670060004A00DD00420A8000DB
:1030C000F13F2E008100610001007000400A88007D
:1030D0000080FA00000006000200FA00000F7800ED
:1030E0001E00780000407800674060000080FB0010
:1030F00067006000420A800081FF2F0081006100AC
:1031000001007000400A88000080FA0000000600FC
:103110000000FA004B01A8000080FA000000060041
:103120000200FA00000F78001E00780000407800CE
:10313000674060000080FB00670060004A00DD001F
:10314000820A8000F13F2E008100610001007000C2
:10315000800A88000080FA00000006000200FA00E1
:10316000000F78001E007800004078006740600083
:103170000080FB0067006000820A800081FF2F0052
:103180008100610001007000800A88000080FA0060
:10319000000006000000FA005301A8000080FA00B9
:1031A000000006000000FA0004A8A9000080FA0050
:1031B000000006000200FA00000F78001E007800F0
:1031C00000407800674060000080FB0067006000FE
:1031D0004A00DD00C20A8000F13F2E00810061003C
:1031E00001007000C00A88000080FA00000006009C
:1031F0000200FA00000F78001E00780000407800FE
:10320000674060000080FB0067006000C20A800029
:1032100081FF2F008100610001007000C00A88005A
:103220000080FA00000006000000FA005B01A80020
:103230000080FA00000006000600FA00004F780047
:103240001147980012079800230798001E80FB0082
:10325000A1B9260000804000104078000074A10051
:103260008080FB00F0072000008060007235800045
:1032700001F82F00810061000100700070358800A6
:103280001E4090000080FB00A1B926000080400095
:10329000104078000074A1008080FB00F00720003F
:1032A000008060008235800001F82F0081006100FD
:1032B00001007000803588003048070093480700FF
:1032C000F648070060470700700020004EFF070027
:1032D0007000200071FF07007000200090FF0700C1
:1032E00070002000B3FF070064FF070088FF07009D
:1032F000A8FF0700CCFF070064FF0700A9FF070035
:103300001E0090004FFF07001E00900072FF070094
:103310002E00900091FF07002E009000B4FF0700E0
:1033200050480700B34807001649070080470700C8
:103330000080FA00000006000200FA00FB420700CD
:10334000004F7800054D07001021A8001E407800AE
:10335000E44F500002003A00B24B0700164107004C
:103360001E80FB00A1B926000080400010407800BC
:103370000074A1008080FB00F00720000080600046
:103380003235800001F82F008100610001007000DB
:10339000303588000B4D070010C0B3000080FA00E4
:1033A000000006000000FA00024D07000643070077
:1033B00010C0B3000080FA0000000600F03FB1002A
:1033C0000180B10006003500EE0309000000000096
:1033D000403FB1000180B100FBFF3D001000B00094
:1033E000203FB0000200350000800900000000000E
:0833F00000000600FFFF37009A
:00000001FF
